{
  "contractName": "RealEstate",
  "abi": [
    {
      "anonymous": false,
      "inputs": [
        {
          "indexed": false,
          "internalType": "uint256",
          "name": "id",
          "type": "uint256"
        },
        {
          "indexed": false,
          "internalType": "string",
          "name": "name",
          "type": "string"
        },
        {
          "indexed": false,
          "internalType": "string",
          "name": "location",
          "type": "string"
        },
        {
          "indexed": false,
          "internalType": "uint256",
          "name": "price",
          "type": "uint256"
        },
        {
          "indexed": false,
          "internalType": "address",
          "name": "owner",
          "type": "address"
        }
      ],
      "name": "PropertyCreated",
      "type": "event"
    },
    {
      "anonymous": false,
      "inputs": [
        {
          "indexed": false,
          "internalType": "uint256",
          "name": "id",
          "type": "uint256"
        },
        {
          "indexed": false,
          "internalType": "address",
          "name": "oldOwner",
          "type": "address"
        },
        {
          "indexed": false,
          "internalType": "address",
          "name": "newOwner",
          "type": "address"
        },
        {
          "indexed": false,
          "internalType": "uint256",
          "name": "price",
          "type": "uint256"
        }
      ],
      "name": "PropertySold",
      "type": "event"
    },
    {
      "inputs": [],
      "name": "nextId",
      "outputs": [
        {
          "internalType": "uint256",
          "name": "",
          "type": "uint256"
        }
      ],
      "stateMutability": "view",
      "type": "function",
      "constant": true
    },
    {
      "inputs": [
        {
          "internalType": "uint256",
          "name": "",
          "type": "uint256"
        }
      ],
      "name": "properties",
      "outputs": [
        {
          "internalType": "uint256",
          "name": "id",
          "type": "uint256"
        },
        {
          "internalType": "string",
          "name": "name",
          "type": "string"
        },
        {
          "internalType": "string",
          "name": "location",
          "type": "string"
        },
        {
          "internalType": "enum RealEstate.PropertyType",
          "name": "propertyType",
          "type": "uint8"
        },
        {
          "internalType": "uint256",
          "name": "area",
          "type": "uint256"
        },
        {
          "internalType": "uint256",
          "name": "price",
          "type": "uint256"
        },
        {
          "internalType": "address",
          "name": "owner",
          "type": "address"
        }
      ],
      "stateMutability": "view",
      "type": "function",
      "constant": true
    },
    {
      "inputs": [
        {
          "internalType": "string",
          "name": "name",
          "type": "string"
        },
        {
          "internalType": "string",
          "name": "location",
          "type": "string"
        },
        {
          "internalType": "enum RealEstate.PropertyType",
          "name": "propertyType",
          "type": "uint8"
        },
        {
          "internalType": "uint256",
          "name": "area",
          "type": "uint256"
        },
        {
          "internalType": "uint256",
          "name": "price",
          "type": "uint256"
        }
      ],
      "name": "createProperty",
      "outputs": [],
      "stateMutability": "nonpayable",
      "type": "function"
    },
    {
      "inputs": [],
      "name": "getPropertiesCount",
      "outputs": [
        {
          "internalType": "uint256",
          "name": "",
          "type": "uint256"
        }
      ],
      "stateMutability": "view",
      "type": "function",
      "constant": true
    },
    {
      "inputs": [
        {
          "internalType": "uint256",
          "name": "id",
          "type": "uint256"
        }
      ],
      "name": "getPropertyById",
      "outputs": [
        {
          "components": [
            {
              "internalType": "uint256",
              "name": "id",
              "type": "uint256"
            },
            {
              "internalType": "string",
              "name": "name",
              "type": "string"
            },
            {
              "internalType": "string",
              "name": "location",
              "type": "string"
            },
            {
              "internalType": "enum RealEstate.PropertyType",
              "name": "propertyType",
              "type": "uint8"
            },
            {
              "internalType": "uint256",
              "name": "area",
              "type": "uint256"
            },
            {
              "internalType": "uint256",
              "name": "price",
              "type": "uint256"
            },
            {
              "internalType": "address",
              "name": "owner",
              "type": "address"
            }
          ],
          "internalType": "struct RealEstate.Property",
          "name": "",
          "type": "tuple"
        }
      ],
      "stateMutability": "view",
      "type": "function",
      "constant": true
    },
    {
      "inputs": [
        {
          "internalType": "uint256",
          "name": "id",
          "type": "uint256"
        }
      ],
      "name": "buyProperty",
      "outputs": [],
      "stateMutability": "payable",
      "type": "function",
      "payable": true
    },
    {
      "inputs": [
        {
          "internalType": "uint256",
          "name": "id",
          "type": "uint256"
        }
      ],
      "name": "getPropertyOwner",
      "outputs": [
        {
          "internalType": "address",
          "name": "",
          "type": "address"
        }
      ],
      "stateMutability": "view",
      "type": "function",
      "constant": true
    },
    {
      "inputs": [],
      "name": "getOwnerProperties",
      "outputs": [
        {
          "components": [
            {
              "internalType": "uint256",
              "name": "id",
              "type": "uint256"
            },
            {
              "internalType": "string",
              "name": "name",
              "type": "string"
            },
            {
              "internalType": "string",
              "name": "location",
              "type": "string"
            },
            {
              "internalType": "enum RealEstate.PropertyType",
              "name": "propertyType",
              "type": "uint8"
            },
            {
              "internalType": "uint256",
              "name": "area",
              "type": "uint256"
            },
            {
              "internalType": "uint256",
              "name": "price",
              "type": "uint256"
            },
            {
              "internalType": "address",
              "name": "owner",
              "type": "address"
            }
          ],
          "internalType": "struct RealEstate.Property[]",
          "name": "",
          "type": "tuple[]"
        }
      ],
      "stateMutability": "view",
      "type": "function",
      "constant": true
    }
  ],
  "bytecode": "0x60806040526001805534801561001457600080fd5b506118a8806100246000396000f3fe60806040526004361061007b5760003560e01c80636fa830a61161004e5780636fa830a61461013c57806379754f3b14610158578063e34fc53114610183578063f7b10808146101c05761007b565b8063174000bc1461008057806325307717146100ab57806359fe18eb146100d457806361b8ce8c14610111575b600080fd5b34801561008c57600080fd5b50610095610203565b6040516100a2919061154c565b60405180910390f35b3480156100b757600080fd5b506100d260048036036100cd919081019061107a565b61020f565b005b3480156100e057600080fd5b506100fb60048036036100f69190810190611121565b6103b4565b604051610108919061152a565b60405180910390f35b34801561011d57600080fd5b50610126610656565b604051610133919061154c565b60405180910390f35b61015660048036036101519190810190611121565b61065c565b005b34801561016457600080fd5b5061016d610871565b60405161017a91906114c8565b60405180910390f35b34801561018f57600080fd5b506101aa60048036036101a59190810190611121565b610c1f565b6040516101b791906114ad565b60405180910390f35b3480156101cc57600080fd5b506101e760048036036101e29190810190611121565b610cef565b6040516101fa979695949392919061160d565b60405180910390f35b60008080549050905090565b60006040518060e00160405280600154815260200187815260200186815260200185600281111561023c57fe5b81526020018481526020018381526020013373ffffffffffffffffffffffffffffffffffffffff1681525090806001815401808255809150506001900390600052602060002090600702016000909190919091506000820151816000015560208201518160010190805190602001906102b6929190610e9b565b5060408201518160020190805190602001906102d3929190610e9b565b5060608201518160030160006101000a81548160ff021916908360028111156102f857fe5b02179055506080820151816004015560a0820151816005015560c08201518160060160006101000a81548173ffffffffffffffffffffffffffffffffffffffff021916908373ffffffffffffffffffffffffffffffffffffffff16021790555050507f7c2386ddb9cf4c20a2495b0c65f9ecc27d38c5af2b88587642852b689c64ebc5600154868684336040516103939594939291906115ac565b60405180910390a16001600081548092919060010191905055505050505050565b6103bc610f1b565b60008090505b6000805490508110156106155782600082815481106103dd57fe5b9060005260206000209060070201600001541415610608576000818154811061040257fe5b90600052602060002090600702016040518060e001604052908160008201548152602001600182018054600181600116156101000203166002900480601f0160208091040260200160405190810160405280929190818152602001828054600181600116156101000203166002900480156104be5780601f10610493576101008083540402835291602001916104be565b820191906000526020600020905b8154815290600101906020018083116104a157829003601f168201915b50505050508152602001600282018054600181600116156101000203166002900480601f0160208091040260200160405190810160405280929190818152602001828054600181600116156101000203166002900480156105605780601f1061053557610100808354040283529160200191610560565b820191906000526020600020905b81548152906001019060200180831161054357829003601f168201915b505050505081526020016003820160009054906101000a900460ff16600281111561058757fe5b600281111561059257fe5b815260200160048201548152602001600582015481526020016006820160009054906101000a900473ffffffffffffffffffffffffffffffffffffffff1673ffffffffffffffffffffffffffffffffffffffff1673ffffffffffffffffffffffffffffffffffffffff1681525050915050610651565b80806001019150506103c2565b506040517f08c379a00000000000000000000000000000000000000000000000000000000081526004016106489061150a565b60405180910390fd5b919050565b60015481565b60008090505b60008054905081101561083257816000828154811061067d57fe5b906000526020600020906007020160000154141561082557600081815481106106a257fe5b90600052602060002090600702016005015434146106f5576040517f08c379a00000000000000000000000000000000000000000000000000000000081526004016106ec906114ea565b60405180910390fd5b600080828154811061070357fe5b906000526020600020906007020160060160009054906101000a900473ffffffffffffffffffffffffffffffffffffffff16905060008190508073ffffffffffffffffffffffffffffffffffffffff166108fc349081150290604051600060405180830381858888f19350505050158015610782573d6000803e3d6000fd5b50336000848154811061079157fe5b906000526020600020906007020160060160006101000a81548173ffffffffffffffffffffffffffffffffffffffff021916908373ffffffffffffffffffffffffffffffffffffffff1602179055507fddd64180d9701c7ede08673ac8106484ff983a472929330d4fbde4e35d65cb06848333346040516108159493929190611567565b60405180910390a150505061086e565b8080600101915050610662565b506040517f08c379a00000000000000000000000000000000000000000000000000000000081526004016108659061150a565b60405180910390fd5b50565b6060600080905060008090505b600080549050811015610913573373ffffffffffffffffffffffffffffffffffffffff16600082815481106108af57fe5b906000526020600020906007020160060160009054906101000a900473ffffffffffffffffffffffffffffffffffffffff1673ffffffffffffffffffffffffffffffffffffffff1614156109065781806001019250505b808060010191505061087e565b5060608160405190808252806020026020018201604052801561095057816020015b61093d610f79565b8152602001906001900390816109355790505b509050600080905060008090505b600080549050811015610c15573373ffffffffffffffffffffffffffffffffffffffff166000828154811061098f57fe5b906000526020600020906007020160060160009054906101000a900473ffffffffffffffffffffffffffffffffffffffff1673ffffffffffffffffffffffffffffffffffffffff161415610c0857600081815481106109ea57fe5b90600052602060002090600702016040518060e001604052908160008201548152602001600182018054600181600116156101000203166002900480601f016020809104026020016040519081016040528092919081815260200182805460018160011615610100020316600290048015610aa65780601f10610a7b57610100808354040283529160200191610aa6565b820191906000526020600020905b815481529060010190602001808311610a8957829003601f168201915b50505050508152602001600282018054600181600116156101000203166002900480601f016020809104026020016040519081016040528092919081815260200182805460018160011615610100020316600290048015610b485780601f10610b1d57610100808354040283529160200191610b48565b820191906000526020600020905b815481529060010190602001808311610b2b57829003601f168201915b505050505081526020016003820160009054906101000a900460ff166002811115610b6f57fe5b6002811115610b7a57fe5b815260200160048201548152602001600582015481526020016006820160009054906101000a900473ffffffffffffffffffffffffffffffffffffffff1673ffffffffffffffffffffffffffffffffffffffff1673ffffffffffffffffffffffffffffffffffffffff1681525050838381518110610bf457fe5b602002602001018190525081806001019250505b808060010191505061095e565b5081935050505090565b600080600090505b600080549050811015610cae578260008281548110610c4257fe5b9060005260206000209060070201600001541415610ca15760008181548110610c6757fe5b906000526020600020906007020160060160009054906101000a900473ffffffffffffffffffffffffffffffffffffffff16915050610cea565b8080600101915050610c27565b506040517f08c379a0000000000000000000000000000000000000000000000000000000008152600401610ce19061150a565b60405180910390fd5b919050565b60008181548110610cfc57fe5b9060005260206000209060070201600091509050806000015490806001018054600181600116156101000203166002900480601f016020809104026020016040519081016040528092919081815260200182805460018160011615610100020316600290048015610dae5780601f10610d8357610100808354040283529160200191610dae565b820191906000526020600020905b815481529060010190602001808311610d9157829003601f168201915b505050505090806002018054600181600116156101000203166002900480601f016020809104026020016040519081016040528092919081815260200182805460018160011615610100020316600290048015610e4c5780601f10610e2157610100808354040283529160200191610e4c565b820191906000526020600020905b815481529060010190602001808311610e2f57829003601f168201915b5050505050908060030160009054906101000a900460ff16908060040154908060050154908060060160009054906101000a900473ffffffffffffffffffffffffffffffffffffffff16905087565b828054600181600116156101000203166002900490600052602060002090601f016020900481019282601f10610edc57805160ff1916838001178555610f0a565b82800160010185558215610f0a579182015b82811115610f09578251825591602001919060010190610eee565b5b509050610f179190610fd7565b5090565b6040518060e0016040528060008152602001606081526020016060815260200160006002811115610f4857fe5b81526020016000815260200160008152602001600073ffffffffffffffffffffffffffffffffffffffff1681525090565b6040518060e0016040528060008152602001606081526020016060815260200160006002811115610fa657fe5b81526020016000815260200160008152602001600073ffffffffffffffffffffffffffffffffffffffff1681525090565b610ff991905b80821115610ff5576000816000905550600101610fdd565b5090565b90565b60008135905061100b8161184b565b92915050565b600082601f83011261102257600080fd5b8135611035611030826116b7565b61168a565b9150808252602083016020830185838301111561105157600080fd5b61105c8382846117eb565b50505092915050565b6000813590506110748161185b565b92915050565b600080600080600060a0868803121561109257600080fd5b600086013567ffffffffffffffff8111156110ac57600080fd5b6110b888828901611011565b955050602086013567ffffffffffffffff8111156110d557600080fd5b6110e188828901611011565b94505060406110f288828901610ffc565b935050606061110388828901611065565b925050608061111488828901611065565b9150509295509295909350565b60006020828403121561113357600080fd5b600061114184828501611065565b91505092915050565b600061115683836113ec565b905092915050565b611167816117a3565b82525050565b61117681611754565b82525050565b61118581611754565b82525050565b6000611196826116f3565b6111a08185611721565b9350836020820285016111b2856116e3565b8060005b858110156111ee57848403895281516111cf858261114a565b94506111da83611714565b925060208a019950506001810190506111b6565b50829750879550505050505092915050565b611209816117b5565b82525050565b611218816117b5565b82525050565b600061122982611709565b6112338185611743565b93506112438185602086016117fa565b61124c8161182d565b840191505092915050565b6000611262826116fe565b61126c8185611732565b935061127c8185602086016117fa565b6112858161182d565b840191505092915050565b600061129b826116fe565b6112a58185611743565b93506112b58185602086016117fa565b6112be8161182d565b840191505092915050565b60006112d6600e83611743565b91507f496e76616c696420616d6f756e740000000000000000000000000000000000006000830152602082019050919050565b6000611316601283611743565b91507f50726f7065727479206e6f7420666f756e6400000000000000000000000000006000830152602082019050919050565b600060e083016000830151611361600086018261148f565b50602083015184820360208601526113798282611257565b915050604083015184820360408601526113938282611257565b91505060608301516113a86060860182611200565b5060808301516113bb608086018261148f565b5060a08301516113ce60a086018261148f565b5060c08301516113e160c086018261116d565b508091505092915050565b600060e083016000830151611404600086018261148f565b506020830151848203602086015261141c8282611257565b915050604083015184820360408601526114368282611257565b915050606083015161144b6060860182611200565b50608083015161145e608086018261148f565b5060a083015161147160a086018261148f565b5060c083015161148460c086018261116d565b508091505092915050565b61149881611799565b82525050565b6114a781611799565b82525050565b60006020820190506114c2600083018461117c565b92915050565b600060208201905081810360008301526114e2818461118b565b905092915050565b60006020820190508181036000830152611503816112c9565b9050919050565b6000602082019050818103600083015261152381611309565b9050919050565b600060208201905081810360008301526115448184611349565b905092915050565b6000602082019050611561600083018461149e565b92915050565b600060808201905061157c600083018761149e565b611589602083018661117c565b611596604083018561115e565b6115a3606083018461149e565b95945050505050565b600060a0820190506115c1600083018861149e565b81810360208301526115d3818761121e565b905081810360408301526115e7818661121e565b90506115f6606083018561149e565b611603608083018461115e565b9695505050505050565b600060e082019050611622600083018a61149e565b81810360208301526116348189611290565b905081810360408301526116488188611290565b9050611657606083018761120f565b611664608083018661149e565b61167160a083018561149e565b61167e60c083018461117c565b98975050505050505050565b6000604051905081810181811067ffffffffffffffff821117156116ad57600080fd5b8060405250919050565b600067ffffffffffffffff8211156116ce57600080fd5b601f19601f8301169050602081019050919050565b6000819050602082019050919050565b600081519050919050565b600081519050919050565b600081519050919050565b6000602082019050919050565b600082825260208201905092915050565b600082825260208201905092915050565b600082825260208201905092915050565b600061175f82611779565b9050919050565b60008190506117748261183e565b919050565b600073ffffffffffffffffffffffffffffffffffffffff82169050919050565b6000819050919050565b60006117ae826117c7565b9050919050565b60006117c082611766565b9050919050565b60006117d2826117d9565b9050919050565b60006117e482611779565b9050919050565b82818337600083830152505050565b60005b838110156118185780820151818401526020810190506117fd565b83811115611827576000848401525b50505050565b6000601f19601f8301169050919050565b6003811061184857fe5b50565b6003811061185857600080fd5b50565b61186481611799565b811461186f57600080fd5b5056fea2646970667358221220cf4f895c78b13b10ed924c18f20e33ee656c1407d80655b295b1de26df1c33ea64736f6c63430006000033",
  "source": "// SPDX-License-Identifier: MIT\npragma solidity >=0.4.22 <0.9.0;\npragma experimental ABIEncoderV2;\n\ncontract RealEstate {\n    enum PropertyType { Villa, Apartment, Land } \n\n    struct Property {\n        uint id;\n        string name;\n        string location;\n        PropertyType propertyType;\n        uint area; \n        uint price;\n        address owner;\n    }\n\n    Property[] public properties;\n    uint public nextId = 1;\n\n    event PropertyCreated(uint id, string name, string location, uint price, address owner);\n    event PropertySold(uint id, address oldOwner, address newOwner, uint price);\n\n    function createProperty(string memory name, string memory location, PropertyType propertyType, uint area, uint price) public {\n        properties.push(Property(nextId, name, location, propertyType, area, price, msg.sender));\n        emit PropertyCreated(nextId, name, location, price, msg.sender);\n        nextId++;\n    }\n    \n    function getPropertiesCount() public view returns(uint) {\n        return properties.length;\n    }\n\n    function getPropertyById(uint id) public view returns(Property memory) {\n        for(uint i = 0; i < properties.length; i++) {\n            if(properties[i].id == id) {\n                return properties[i];\n            }\n        }\n        revert(\"Property not found\");\n    }\n\n    function buyProperty(uint id) public payable {\n        for (uint i = 0; i < properties.length; i++) {\n            if (properties[i].id == id) {\n                require(msg.value == properties[i].price, \"Invalid amount\");\n                address oldOwner = properties[i].owner;\n                address payable payableOldOwner = payable(oldOwner);\n                payableOldOwner.transfer(msg.value);\n                properties[i].owner = msg.sender;\n                \n                emit PropertySold(id, oldOwner, msg.sender, msg.value);\n                return;\n            }\n        }\n        revert(\"Property not found\");\n    }\n\n    function getPropertyOwner(uint id) public view returns(address) {\n        for(uint i = 0; i < properties.length; i++) {\n            if(properties[i].id == id) {\n                return properties[i].owner;\n            }\n        }\n        revert(\"Property not found\");\n    }\n\n    function getOwnerProperties() public view returns(Property[] memory) {\n        uint counter = 0;\n        for(uint i = 0; i < properties.length; i++) {\n            if(properties[i].owner == msg.sender) {\n                counter++;\n            }\n        }\n        \n        Property[] memory result = new Property[](counter);\n        uint index = 0;\n        for(uint i = 0; i < properties.length; i++) {\n            if(properties[i].owner == msg.sender) {\n                result[index] = properties[i];\n                index++;\n            }\n        }\n        \n        return result;\n    }\n}",
  "sourcePath": "D:\\B. E. CMPN\\Seventh sem\\BC\\real-estate-app\\contracts\\RealEstate.sol",
  "compiler": {
    "name": "solc",
    "version": "0.6.0+commit.26b70077.Emscripten.clang"
  },
  "schemaVersion": "3.4.16",
  "updatedAt": "2024-10-10T15:30:59.697Z",
  "networkType": "ethereum",
  "devdoc": {
    "methods": {}
  },
  "userdoc": {
    "methods": {}
  }
}