{
  "contractName": "TransactionRegistry",
  "abi": [
    {
      "anonymous": false,
      "inputs": [
        {
          "indexed": false,
          "internalType": "bytes32",
          "name": "transactionHash",
          "type": "bytes32"
        },
        {
          "indexed": false,
          "internalType": "uint256",
          "name": "propertyId",
          "type": "uint256"
        },
        {
          "indexed": false,
          "internalType": "address",
          "name": "buyer",
          "type": "address"
        },
        {
          "indexed": false,
          "internalType": "address",
          "name": "seller",
          "type": "address"
        },
        {
          "indexed": false,
          "internalType": "uint256",
          "name": "amount",
          "type": "uint256"
        }
      ],
      "name": "TransactionRecorded",
      "type": "event"
    },
    {
      "inputs": [
        {
          "internalType": "uint256",
          "name": "",
          "type": "uint256"
        }
      ],
      "name": "transactionHashes",
      "outputs": [
        {
          "internalType": "bytes32",
          "name": "",
          "type": "bytes32"
        }
      ],
      "stateMutability": "view",
      "type": "function",
      "constant": true
    },
    {
      "inputs": [
        {
          "internalType": "bytes32",
          "name": "",
          "type": "bytes32"
        }
      ],
      "name": "transactions",
      "outputs": [
        {
          "internalType": "uint256",
          "name": "propertyId",
          "type": "uint256"
        },
        {
          "internalType": "uint256",
          "name": "amount",
          "type": "uint256"
        },
        {
          "internalType": "address",
          "name": "buyer",
          "type": "address"
        },
        {
          "internalType": "address",
          "name": "seller",
          "type": "address"
        },
        {
          "internalType": "uint256",
          "name": "timestamp",
          "type": "uint256"
        }
      ],
      "stateMutability": "view",
      "type": "function",
      "constant": true
    },
    {
      "inputs": [
        {
          "internalType": "uint256",
          "name": "propertyId",
          "type": "uint256"
        },
        {
          "internalType": "uint256",
          "name": "amount",
          "type": "uint256"
        },
        {
          "internalType": "address",
          "name": "seller",
          "type": "address"
        },
        {
          "internalType": "address",
          "name": "buyer",
          "type": "address"
        }
      ],
      "name": "recordTransaction",
      "outputs": [],
      "stateMutability": "nonpayable",
      "type": "function"
    },
    {
      "inputs": [
        {
          "internalType": "address",
          "name": "account",
          "type": "address"
        }
      ],
      "name": "getTransactionsByAccount",
      "outputs": [
        {
          "internalType": "bytes32[]",
          "name": "",
          "type": "bytes32[]"
        }
      ],
      "stateMutability": "view",
      "type": "function",
      "constant": true
    },
    {
      "inputs": [
        {
          "internalType": "bytes32",
          "name": "transactionHash",
          "type": "bytes32"
        }
      ],
      "name": "getTransactionDetails",
      "outputs": [
        {
          "internalType": "uint256",
          "name": "propertyId",
          "type": "uint256"
        },
        {
          "internalType": "uint256",
          "name": "amount",
          "type": "uint256"
        },
        {
          "internalType": "address",
          "name": "buyer",
          "type": "address"
        },
        {
          "internalType": "address",
          "name": "seller",
          "type": "address"
        },
        {
          "internalType": "uint256",
          "name": "timestamp",
          "type": "uint256"
        }
      ],
      "stateMutability": "view",
      "type": "function",
      "constant": true
    },
    {
      "inputs": [
        {
          "internalType": "uint256",
          "name": "propertyId",
          "type": "uint256"
        }
      ],
      "name": "getTransactionsByProperty",
      "outputs": [
        {
          "internalType": "bytes32[]",
          "name": "",
          "type": "bytes32[]"
        }
      ],
      "stateMutability": "view",
      "type": "function",
      "constant": true
    }
  ],
  "bytecode": "0x608060405234801561001057600080fd5b50611091806100206000396000f3fe608060405234801561001057600080fd5b50600436106100625760003560e01c8063213dafcd14610067578063515a39b614610097578063642f2eaf146100cb5780636e5acf31146100ff578063dc9961eb1461011b578063e4d15a071461014b575b600080fd5b610081600480360361007c9190810190610cae565b61017b565b60405161008e9190610e9b565b60405180910390f35b6100b160048036036100ac9190810190610c85565b61019c565b6040516100c2959493929190610f09565b60405180910390f35b6100e560048036036100e09190810190610c85565b6102c2565b6040516100f6959493929190610f09565b60405180910390f35b61011960048036036101149190810190610cd7565b610338565b005b61013560048036036101309190810190610c5c565b6104ee565b6040516101429190610e79565b60405180910390f35b61016560048036036101609190810190610cae565b61070f565b6040516101729190610e79565b60405180910390f35b6001818154811061018857fe5b906000526020600020016000915090505481565b60008060008060006101ac610bc2565b6000808881526020019081526020016000206040518060a001604052908160008201548152602001600182015481526020016002820160009054906101000a900473ffffffffffffffffffffffffffffffffffffffff1673ffffffffffffffffffffffffffffffffffffffff1673ffffffffffffffffffffffffffffffffffffffff1681526020016003820160009054906101000a900473ffffffffffffffffffffffffffffffffffffffff1673ffffffffffffffffffffffffffffffffffffffff1673ffffffffffffffffffffffffffffffffffffffff168152602001600482015481525050905080600001518160200151826040015183606001518460800151955095509550955095505091939590929450565b60006020528060005260406000206000915090508060000154908060010154908060020160009054906101000a900473ffffffffffffffffffffffffffffffffffffffff16908060030160009054906101000a900473ffffffffffffffffffffffffffffffffffffffff16908060040154905085565b60008482848642604051602001610353959493929190610e1a565b6040516020818303038152906040528051906020012090506040518060a001604052808681526020018581526020018373ffffffffffffffffffffffffffffffffffffffff1681526020018473ffffffffffffffffffffffffffffffffffffffff16815260200142815250600080838152602001908152602001600020600082015181600001556020820151816001015560408201518160020160006101000a81548173ffffffffffffffffffffffffffffffffffffffff021916908373ffffffffffffffffffffffffffffffffffffffff16021790555060608201518160030160006101000a81548173ffffffffffffffffffffffffffffffffffffffff021916908373ffffffffffffffffffffffffffffffffffffffff1602179055506080820151816004015590505060018190806001815401808255809150506001900390600052602060002001600090919091909150557f7fd146f232f2f45b56f8535640f0c54f01ffef7f222fe01077184764fce265bd81868486886040516104df959493929190610eb6565b60405180910390a15050505050565b6060806104fa836108ca565b6040519080825280602002602001820160405280156105285781602001602082028038833980820191505090505b509050600080905060008090505b6001805490508110156107045761054b610bc2565b6000806001848154811061055b57fe5b906000526020600020015481526020019081526020016000206040518060a001604052908160008201548152602001600182015481526020016002820160009054906101000a900473ffffffffffffffffffffffffffffffffffffffff1673ffffffffffffffffffffffffffffffffffffffff1673ffffffffffffffffffffffffffffffffffffffff1681526020016003820160009054906101000a900473ffffffffffffffffffffffffffffffffffffffff1673ffffffffffffffffffffffffffffffffffffffff1673ffffffffffffffffffffffffffffffffffffffff16815260200160048201548152505090508573ffffffffffffffffffffffffffffffffffffffff16816040015173ffffffffffffffffffffffffffffffffffffffff1614806106b857508573ffffffffffffffffffffffffffffffffffffffff16816060015173ffffffffffffffffffffffffffffffffffffffff16145b156106f657600182815481106106ca57fe5b90600052602060002001548484815181106106e157fe5b60200260200101818152505082806001019350505b508080600101915050610536565b508192505050919050565b60608061071b83610a79565b6040519080825280602002602001820160405280156107495781602001602082028038833980820191505090505b509050600080905060008090505b6001805490508110156108bf5761076c610bc2565b6000806001848154811061077c57fe5b906000526020600020015481526020019081526020016000206040518060a001604052908160008201548152602001600182015481526020016002820160009054906101000a900473ffffffffffffffffffffffffffffffffffffffff1673ffffffffffffffffffffffffffffffffffffffff1673ffffffffffffffffffffffffffffffffffffffff1681526020016003820160009054906101000a900473ffffffffffffffffffffffffffffffffffffffff1673ffffffffffffffffffffffffffffffffffffffff1673ffffffffffffffffffffffffffffffffffffffff168152602001600482015481525050905085816000015114156108b1576001828154811061088557fe5b906000526020600020015484848151811061089c57fe5b60200260200101818152505082806001019350505b508080600101915050610757565b508192505050919050565b600080600090505b600180549050811015610a70576108e7610bc2565b600080600184815481106108f757fe5b906000526020600020015481526020019081526020016000206040518060a001604052908160008201548152602001600182015481526020016002820160009054906101000a900473ffffffffffffffffffffffffffffffffffffffff1673ffffffffffffffffffffffffffffffffffffffff1673ffffffffffffffffffffffffffffffffffffffff1681526020016003820160009054906101000a900473ffffffffffffffffffffffffffffffffffffffff1673ffffffffffffffffffffffffffffffffffffffff1673ffffffffffffffffffffffffffffffffffffffff16815260200160048201548152505090508373ffffffffffffffffffffffffffffffffffffffff16816040015173ffffffffffffffffffffffffffffffffffffffff161480610a5457508373ffffffffffffffffffffffffffffffffffffffff16816060015173ffffffffffffffffffffffffffffffffffffffff16145b15610a625782806001019350505b5080806001019150506108d2565b50809050919050565b600080600090505b600180549050811015610bb957610a96610bc2565b60008060018481548110610aa657fe5b906000526020600020015481526020019081526020016000206040518060a001604052908160008201548152602001600182015481526020016002820160009054906101000a900473ffffffffffffffffffffffffffffffffffffffff1673ffffffffffffffffffffffffffffffffffffffff1673ffffffffffffffffffffffffffffffffffffffff1681526020016003820160009054906101000a900473ffffffffffffffffffffffffffffffffffffffff1673ffffffffffffffffffffffffffffffffffffffff1673ffffffffffffffffffffffffffffffffffffffff16815260200160048201548152505090508381600001511415610bab5782806001019350505b508080600101915050610a81565b50809050919050565b6040518060a001604052806000815260200160008152602001600073ffffffffffffffffffffffffffffffffffffffff168152602001600073ffffffffffffffffffffffffffffffffffffffff168152602001600081525090565b600081359050610c2c81611016565b92915050565b600081359050610c418161102d565b92915050565b600081359050610c5681611044565b92915050565b600060208284031215610c6e57600080fd5b6000610c7c84828501610c1d565b91505092915050565b600060208284031215610c9757600080fd5b6000610ca584828501610c32565b91505092915050565b600060208284031215610cc057600080fd5b6000610cce84828501610c47565b91505092915050565b60008060008060808587031215610ced57600080fd5b6000610cfb87828801610c47565b9450506020610d0c87828801610c47565b9350506040610d1d87828801610c1d565b9250506060610d2e87828801610c1d565b91505092959194509250565b6000610d468383610dd6565b60208301905092915050565b610d5b81610f95565b82525050565b610d72610d6d82610f95565b610fdb565b82525050565b6000610d8382610f6c565b610d8d8185610f84565b9350610d9883610f5c565b8060005b83811015610dc9578151610db08882610d3a565b9750610dbb83610f77565b925050600181019050610d9c565b5085935050505092915050565b610ddf81610fa7565b82525050565b610dee81610fa7565b82525050565b610dfd81610fd1565b82525050565b610e14610e0f82610fd1565b610fff565b82525050565b6000610e268288610e03565b602082019150610e368287610d61565b601482019150610e468286610d61565b601482019150610e568285610e03565b602082019150610e668284610e03565b6020820191508190509695505050505050565b60006020820190508181036000830152610e938184610d78565b905092915050565b6000602082019050610eb06000830184610de5565b92915050565b600060a082019050610ecb6000830188610de5565b610ed86020830187610df4565b610ee56040830186610d52565b610ef26060830185610d52565b610eff6080830184610df4565b9695505050505050565b600060a082019050610f1e6000830188610df4565b610f2b6020830187610df4565b610f386040830186610d52565b610f456060830185610d52565b610f526080830184610df4565b9695505050505050565b6000819050602082019050919050565b600081519050919050565b6000602082019050919050565b600082825260208201905092915050565b6000610fa082610fb1565b9050919050565b6000819050919050565b600073ffffffffffffffffffffffffffffffffffffffff82169050919050565b6000819050919050565b6000610fe682610fed565b9050919050565b6000610ff882611009565b9050919050565b6000819050919050565b60008160601b9050919050565b61101f81610f95565b811461102a57600080fd5b50565b61103681610fa7565b811461104157600080fd5b50565b61104d81610fd1565b811461105857600080fd5b5056fea2646970667358221220b11ad1a37324c59178feaa059e08631d7b7e2c7534e97a11818480ad86ad857364736f6c63430006000033",
  "source": "// SPDX-License-Identifier: MIT\r\npragma solidity >=0.4.22 <0.9.0;\r\npragma experimental ABIEncoderV2;\r\n\r\ncontract TransactionRegistry {\r\n    struct Transaction {\r\n        uint propertyId;\r\n        uint amount;\r\n        address buyer;\r\n        address seller;\r\n        uint timestamp;\r\n    }\r\n\r\n    mapping(bytes32 => Transaction) public transactions;\r\n    bytes32[] public transactionHashes;\r\n\r\n    event TransactionRecorded(bytes32 transactionHash, uint propertyId, address buyer, address seller, uint amount);\r\n\r\n    function recordTransaction(uint propertyId, uint amount, address seller, address buyer) external {\r\n        bytes32 transactionHash = keccak256(abi.encodePacked(propertyId, buyer, seller, amount, block.timestamp));\r\n\r\n        transactions[transactionHash] = Transaction({\r\n            propertyId: propertyId,\r\n            amount: amount,\r\n            buyer: buyer,\r\n            seller: seller,\r\n            timestamp: block.timestamp\r\n        });\r\n        transactionHashes.push(transactionHash);\r\n\r\n        emit TransactionRecorded(transactionHash, propertyId, buyer, seller, amount);\r\n    }\r\n\r\n    function getTransactionsByAccount(address account) external view returns (bytes32[] memory) {\r\n        bytes32[] memory result = new bytes32[](getTransactionsCountByAccount(account));\r\n        uint counter = 0;\r\n\r\n        for (uint i = 0; i < transactionHashes.length; i++) {\r\n            Transaction memory transaction = transactions[transactionHashes[i]];\r\n            if (transaction.buyer == account || transaction.seller == account) {\r\n                result[counter] = transactionHashes[i];\r\n                counter++;\r\n            }\r\n        }\r\n        return result;\r\n    }\r\n\r\n    function getTransactionsCountByAccount(address account) internal view returns (uint count) {\r\n        for (uint i = 0; i < transactionHashes.length; i++) {\r\n            Transaction memory transaction = transactions[transactionHashes[i]];\r\n            if (transaction.buyer == account || transaction.seller == account) {\r\n                count++;\r\n            }\r\n        }\r\n        return count;\r\n    }\r\n\r\n    function getTransactionDetails(bytes32 transactionHash) external view returns (uint propertyId, uint amount, address buyer, address seller, uint timestamp) {\r\n        Transaction memory transaction = transactions[transactionHash];\r\n        return (transaction.propertyId, transaction.amount, transaction.buyer, transaction.seller, transaction.timestamp);\r\n    }\r\n\r\n    function getTransactionsByProperty(uint propertyId) external view returns (bytes32[] memory) {\r\n        bytes32[] memory result = new bytes32[](getTransactionsCountByProperty(propertyId));\r\n        uint counter = 0;\r\n\r\n        for (uint i = 0; i < transactionHashes.length; i++) {\r\n            Transaction memory transaction = transactions[transactionHashes[i]];\r\n            if (transaction.propertyId == propertyId) {\r\n                result[counter] = transactionHashes[i];\r\n                counter++;\r\n            }\r\n        }\r\n        return result;\r\n    }\r\n\r\n    function getTransactionsCountByProperty(uint propertyId) internal view returns (uint count) {\r\n        for (uint i = 0; i < transactionHashes.length; i++) {\r\n            Transaction memory transaction = transactions[transactionHashes[i]];\r\n            if (transaction.propertyId == propertyId) {\r\n                count++;\r\n            }\r\n        }\r\n        return count;\r\n    }\r\n}",
  "sourcePath": "D:\\B. E. CMPN\\Seventh sem\\BC\\real-estate-app\\contracts\\TransactionRegistry.sol",
  "compiler": {
    "name": "solc",
    "version": "0.6.0+commit.26b70077.Emscripten.clang"
  },
  "schemaVersion": "3.4.16",
  "updatedAt": "2024-10-10T16:51:30.357Z",
  "networkType": "ethereum",
  "devdoc": {
    "methods": {}
  },
  "userdoc": {
    "methods": {}
  }
}